S0140000436F6F6C657253797374656D2E7372656327
S11300000C942A000C9434000C9434000C943400A6
S11300100C9434000C9434000C9434000C9434008C
S11300200C9434000C9434000C9434000C9434007C
S11300300C9434000C9434000C9434000C9434006C
S11300400C9434000C9434000C9434000C9434005C
S11300500C94340011241FBECFE5D8E0DEBFCDBF21
S11300600E9464010C94F5020C9400003E9A86B13F
S1130070876886B9089597B1907E97B997B1892B0F
S113008087B9369A3699FECF84B195B10895DA9836
S1130090882314F4DF9A01C0DF9886FF02C0DE9A39
S11300A001C0DE9885FF02C0DD9A01C0DD9884FF9F
S11300B002C0DC9A01C0DC98DB9AEFE9FFE03197DB
S11300C0F1F700C00000DB98EFE9FFE03197F1F7AA
S11300D000C0000083FF02C0DF9A01C0DF9882FFE6
S11300E002C0DE9A01C0DE9881FF02C0DD9A01C021
S11300F0DD9880FF02C0DC9A01C0DC98DB9A8FE9AE
S11301009FE00197F1F700C00000DB98EFE9FFE002
S11301103197F1F700C0000008958AB38D6F8ABB50
S113012083E00E9447008FE79EE30197F1F700C048
S1130130000083E00E9447008FE79EE30197F1F7F8
S113014000C0000083E00E9447008FE79EE3019710
S1130150F1F700C0000082E00E94470088E20E949C
S1130160470081E00E94470086E00E9447008CE03F
S11301700E9447009FEF29EF80E09150204080408B
S1130180E1F700C000000895DA9A882314F4DF9A96
S113019001C0DF9886FF02C0DE9A01C0DE9885FFA9
S11301A002C0DD9A01C0DD9884FF02C0DC9A01C060
S11301B0DC98DB9AEFE9FFE03197F1F700C000002B
S11301C0DB98EFE9FFE03197F1F700C0000083FF0F
S11301D002C0DF9A01C0DF9882FF02C0DE9A01C02C
S11301E0DE9881FF02C0DD9A01C0DD9880FF02C065
S11301F0DC9A01C0DC98DB9A8FE99FE00197F1F764
S113020000C00000DB98EFE9FFE03197F1F700C090
S1130210000008958F929F92AF92BF92EF92FF9247
S11302201F93CF93DF93CDB7DEB72A970FB6F89419
S1130230DEBF0FBECDBF6115710581059105A1F12A
S113024010E00F2EFAE08F2E912CA12CB12CF02D62
S113025001C0122FEE24E394F12CEC0EFD1EE10EEE
S1130260F11C17FDFA94A50194010E94D302F70131
S11302706083622F732F842F952F21E0210F611546
S113028071058105910529F7112374F0E1E0F0E08F
S1130290EC0FFD1FE10FF11D17FDFA958081805DC4
S11302A00E94C400115092F72A960FB6F894DEBF4C
S11302B00FBECDBFDF91CF911F91FF90EF90BF9004
S11302C0AF909F908F9008950E948D000E943600F9
S11302D00E94940114E680E00E943B00C4979C01B4
S11302E012F42F5F3F4F35952795C9E1C20F215076
S11302F02A3040F4DC2FDD0FD2538D2F880F880F66
S1130300D80F05C0C33210F4D0E001C0D12F80E86B
S11303100E9447006C2F70E080E090E00E940A0188
S11303208D2F0E949901D7CF8F9A85B58F6685BD91
S11303300895682F70E080E090E00E94DA0123E3E2
S113034033E343E250E40E943E020E94A90163BDEC
S113035008950E941D0288F09F5798F0B92F99279D
S1130360B751B0F0E1F0660F771F881F991F1AF09C
S1130370BA95C9F714C0B13091F00E943702B1E0C8
S113038008950C943702672F782F8827B85F39F0C7
S1130390B93FCCF3869577956795B395D9F73EF435
S11303A090958095709561957F4F8F4F9F4F0895DD
S11303B0E89409C097FB3EF49095809570956195FB
S11303C07F4F8F4F9F4F9923A9F0F92F96E9BB27B1
S11303D09395F695879577956795B795F111F8CF2D
S11303E0FAF4BB0F11F460FF1BC06F5F7F4F8F4F98
S11303F09F4F16C0882311F096E911C0772321F08E
S11304009EE8872F762F05C0662371F096E8862F25
S113041070E060E02AF09A95660F771F881FDAF77C
S1130420880F9695879597F9089557FD9058440F2E
S1130430551F59F05F3F71F04795880F97FB991F3F
S113044061F09F3F79F087950895121613061406FC
S1130450551FF2CF4695F1DF08C016161706180689
S1130460991FF1CF86957105610508940895E89464
S1130470BB2766277727CB0197F908950E9451027D
S11304800C94C2020E94B40238F00E94BB0220F015
S1130490952311F00C94AB020C94B10211240C942A
S11304A038020E94150270F3959FC1F3950F50E036
S11304B0551F629FF001729FBB27F00DB11D639F12
S11304C0AA27F00DB11DAA1F649F6627B00DA11DB8
S11304D0661F829F2227B00DA11D621F739FB00D5E
S11304E0A11D621F839FA00D611D221F749F3327CE
S11304F0A00D611D231F849F600D211D822F762F67
S11305006A2F11249F5750409AF0F1F088234AF043
S1130510EE0FFF1FBB1F661F771F881F91505040AF
S1130520A9F79E3F510580F00C94AB020C9438025D
S11305305F3FE4F3983ED4F3869577956795B79536
S1130540F795E7959F5FC1F7FE2B880F911D969550
S1130550879597F9089597F99F6780E870E060E0C0
S113056008959FEF80EC089500240A941616170648
S113057018060906089500240A9412161306140690
S113058005060895092E0394000C11F4882352F0F3
S1130590BB0F40F4BF2B11F460FF04C06F5F7F4FAB
S11305A08F4F9F4F0895A1E21A2EAA1BBB1BFD017A
S11305B00DC0AA1FBB1FEE1FFF1FA217B307E4073E
S11305C0F50720F0A21BB30BE40BF50B661F771F96
S11305D0881F991F1A9469F7609570958095909576
S11105E09B01AC01BD01CF010895F894FFCF3B
S9030000FC
